:03000000020612E3
:0C061200787FE4F6D8FD758120020659BF
:10057000530B0F75A60CF5A7C2AF75C7AA75C75563
:1005800043A401D2AF85AE0AE50A75F010A47C0041
:10059000250BFDEC35F0FC1202A68F108E0F8D0E90
:1005A0008C0DE4FFFE7D407C40AB10AA0FA90EA885
:1005B0000D1200FBE4FBFA79807840020204F5A7F3
:1005C000C2AF75C7AA75C75522AE02AF037C007DC6
:1005D000030203601202DF8E1F8F2022740A2FF5A0
:1005E0008274003EF58322740F2FF58274003EF56D
:1005F000832274002FF58274003EF5832274052F48
:10060000F58274003EF58322AD0775F010A47C00DE
:020610002D2299
:10069E001205C0439F01D2AF75AF0475A60DE412CB
:1006AE0005BE43A401D2AF85AE0BE50B54F0F50C9D
:1006BE00648070201205708F148E138D128C11E4CD
:1006CE00FFFE7D047CC2AB14AA13A912A81112005E
:1006DE000A1205D4E50C70061205701205D4E50C4D
:1006EE006490702575A60E1205BE43A401D2AF8587
:1006FE00AE0A75A60F1205BE43A401D2AF85AE0B8E
:10070E00530B0F1205881205D41205C0539FFED24B
:01071E00AF2B
:01071F0022B7
:1004CD00E4F50AF50BFBFA43E80853E8F843E101BC
:1004DD00759502FFFEC2EFD2EE30EFFD1205DCE5A1
:1004ED00C3F01205E7E5C2F00FBF00010EEF640582
:1004FD004E70E2E4F595FE7F021205DCE0250BF56A
:10050D000BE4350AF50A1205E7E02BFBE43AFA0F86
:10051D00BF00010EEF64054E70DFAE0AAF0B120582
:10052D00CD8F0C1205C9E50C120608FDEC35F0FC5B
:10053D001202A6AB07AA06A905A804E4FFFE7D805A
:10054D007C45120204C004C005C006C007AC1FAD37
:10055D0020E41202A6D003D002D001D0001200FB7D
:03056D000202DFA8
:10072000E4F51CF51DFBFA53E8F043E80543B1106E
:1007300053B2EFF5F643F62043E101759502FFFE53
:10074000C2EFD2EE30EFFD1205F2E5C3F01205FD67
:10075000E5C2F00FBF00010EEF64054E70E2E4F554
:1007600095FE7F021205F2E0251DF51DE4351CF50E
:100770001C1205FDE02BFBE43AFA0FBF00010EEF5F
:1007800064054E70DFAE1CAF1D1205CD8F1E120525
:0B079000C9E51E120608FFEC35F0FE64
:01079B00223B
:0F08390002150000011900021A0000021700004A
:10079C00EF64014E7021D2837FC8FEFDFC1207EE80
:1007AC00C2837FC87E007D007C001207EED283D20C
:1007BC0085C28175190122D281C2851207D3120715
:1007CC00D3D283E4F51922D2837FC87E007D007CCE
:1007DC00001207EEC2837FC87E007D007C001207EA
:0207EC00EE22FB
:1003D40053B1D543B22AD281C285D28312069E126A
:1003E40004CD8E158F1620974F7F147E007D007CE0
:0703F400001207EE20974103
:1003FB00E4F508F50920971E7F2C1204C30509E5C7
:10040B000970020508D39404E5086480948040E5E4
:10041B00E4FFFE12079C3097FDE5197014D3E50934
:10042B009404E5086480948050077F017E001207D6
:01043B009C24
:10043C00E51964017013C3E5169480E515940C500E
:10044C0008E4FFFE12079C808EE519640170880594
:10045C001BE51B7002051AC39408E51A9407501388
:10046C00D2831204B7C2831204B7D283D285C2815D
:10047C000203E3E51BB4080AE51AB40705C28302BC
:10048C0003E3D3E51B9408E51A94074012E51B948B
:10049C0021E51A940750087FF41204C30203E3D237
:1004AC0085C281E4F51AF51B0203E37FF47E017D1E
:1004BC00007C001207EE227E017D007C001207EE0C
:0104CC00220D
:1007EE008F0D8E0C8D0B8C0A438901D28CE4FFFE8B
:1007FE00FDFCAB0DAA0CA90BA80AC31203C36028FB
:10080E00E4F58A758CFA308DFDC28DE50D24FFFF5F
:10081E00E50C34FFFEE50B34FFFDE50A34FF8F0DCA
:0B082E008E0C8D0BF50A80C5C28C22D9
:1000030002034BE86480F8E933E83360110460F0DD
:10001300ED33EC337009E8FCE9FDEAFEEBFF220463
:1000230060DED3EB9FEA9EE99DE8C2E78CF0C2F75E
:1000330095F0400CE8CCF8E9CDF9EACEFAEBCFFB2A
:1000430012031685D0F05804700320D5B3E804706A
:10005300075002B2D502035592D5EC0460F7E4CC05
:10006300C0E0C398F8603B94186008400DD0E0FBF3
:1000730002032DE4FBFAC9FC8028E830E406E4C956
:10008300FBE4CAFCE830E305E4C9CACBFCE8540747
:100093006010F8C3E913F9EA13FAEB13FBEC13FC52
:1000A300D8F130F52FC3E49CFCEF9BFFEE9AFEEDF5
:1000B30099FDD0E0FBEF4E4D4C701222DB0302039F
:1000C30052EC2CFCEF33FFEE33FEED33FDED30E766
:1000D300EB02032DEF2BFFEE3AFEED39FDD0E0FBF3
:1000E30050130BBB0003020355ED13FDEE13FEEF9C
:0800F30013FFEC13FC02032DC6
:1000FB00EC4D6011E8497017ED33EC3304600DE4FF
:10010B00FCFFFEFD22E933E8330470F802034B12C7
:10011B00031658046009E4CC2481500628500902C8
:10012B000355284003020352C0E0EB4A7044B980E8
:10013B0006D0E0FB020341EF4E701CBD8008EBFFC5
:10014B00EAFEE9FD80EBE98DF0A4FEE5F00201E4A7
:10015B00E9CDF9EAFEEBFFEF89F0A4FCE5F0CE89DF
:10016B00F0A42EFFE435F0CD89F0A42DFEE435F09C
:10017B008067EF4E7005BD80D780C3EF8BF0A4ACCA
:10018B00F0EE8BF0A42CFCE435F0F8EF8AF0A42C05
:10019B00E5F038FCE433CB8DF0A42CFCE5F03BF818
:1001AB00EE8AF0A42CFCE5F038F8E433CF89F0A408
:1001BB002CFCE5F038CF3400CE89F0A42FFFE5F00E
:1001CB003EFEE433C98DF0A42EFEE5F039CD8AF066
:1001DB00A42FFFE5F03EFEE43DFD33D0E0FB5007DE
:1001EB000BBB000F020355EC2CFCEF33FFEE33FE81
:0601FB00ED33FD02032DAF
:10020100020355EC5D046005E85904700302034BD9
:10021100120316580460F6EC4860F2EC7004FDFE1F
:10022100FF22C860DB2481C85009C39860025006D0
:100231000203529850CAF582E9294B4A7005AB82F4
:1002410002034175F0007C1A7880C3EF9BEE9AEDB2
:1002510099400DC3EF9BFFEE9AFEED99FDE842F048
:10026100DC23ACF0D0E0FFD0E0FED0E0FDAB82209B
:10027100E7101BEB60BAEC2CFCEF33FFEE33FEED25
:1002810033FD02032DE803F830E705C0F075F000F7
:10029100EF2FFFEE33FEED33FD40B830E7C280AA09
:1002A10075F020800E75F010800575F0087D007ED8
:1002B100007F003392D530D5031203B5EC334010E3
:1002C100EF33FFEE33FEED33FDEC33FCD5F0ED22E1
:0E02D100E5F0247EA2D513CC92E7CDCEFF221D
:1002DF00EDD2E7CD33EC3392D524814006E4FFFE17
:1002EF00FDFC22FCE4CFCECDCC24E0501174FF8076
:1002FF00EDC3CC13CCCD13CDCE13CECF13CF047013
:07030F00F030D5DE0203B55A
:10031600E9D2E7C933E833F892D5EDD2E7CD33EC2D
:0703260033FC5002B2D522A6
:10032D00EC30E7100FBF000C0EBE00080DBD000431
:10033D000BEB6014A2D5EB13FCED92E7FD2274FFDD
:10034D00FCFDFEFF22E480F8A2D574FF13FC7D8036
:03035D00E480EF4A
:10061E000203D4E493A3F8E493A34003F68001F21B
:10062E0008DFF48029E493A3F85407240CC8C333DD
:10063E00C4540F4420C8834004F456800146F6DFAC
:10064E00E4800B0102040810204080900839E47EFB
:10065E00019360BCA3FF543F30E509541FFEE493A1
:10066E00A360010ECF54C025E060A840B8E493A368
:10067E00FAE493A3F8E493A3C8C582C8CAC583CA93
:10068E00F0A3C8C582C8CAC583CADFE9DEE780BE4B
:0108480000AF
:10036000BC000BBE0029EF8DF084FFADF022E4CC81
:10037000F875F008EF2FFFEE33FEEC33FCEE9DEC4A
:10038000984005FCEE9DFE0FD5F0E9E4CEFD22ED90
:10039000F8F5F0EE8420D21CFEADF075F008EF2FDA
:1003A000FFED33FD4007985006D5F0F222C398FDCB
:0503B0000FD5F0EA2268
:0E03B500C3E49FFFE49EFEE49DFDE49CFC2259
:1003C300EB9FF5F0EA9E42F0E99D42F0E89C45F090
:0103D3002207
:00000001FF
